:100000000C946C010C9494010C9494010C94940144
:100010000C9494010C9494010C9494010C9494010C
:100020000C9494010C9494010C9494010C944D093B
:100030000C9494010C9494010C9494010C949401EC
:100040000C94AB080C9494010C941B090C94F508C7
:100050000C9494010C9494010C9494010C949401CC
:100060000C9494010C949401638253630001080082
:10007000060400014500008200004000203C2144AD
:100080004F43545950452068746D6C3E3C68746D04
:100090006C206C616E673D27656E273E3C6865612C
:1000A000643E3C6D65746120636861727365743D84
:1000B000275554462D38273E3C6D657461206E618E
:1000C0006D653D2776696577706F72742720636F61
:1000D0006E74656E743D2777696474683D646576F7
:1000E0006963652D77696474682C20696E69746929
:1000F000616C2D7363616C653D312E30273E3C741D
:1001000069746C653E55415320494F543C2F7469C6
:10011000746C653E3C7374796C653E626F647920E3
:100120007B666F6E742D66616D696C793A204172E1
:1001300069616C2C2073616E732D73657269663B07
:100140006261636B67726F756E642D636F6C6F7243
:100150003A20233141323133303B746578742D615C
:100160006C69676E3A2063656E7465723B7061649A
:1001700064696E673A20323070783B7D6831207B4D
:10018000636F6C6F723A20233541373241303B7DCB
:1001900070207B636F6C6F723A202346444646455D
:1001A000323B7D2E64616E676572207B636F6C6F7E
:1001B000723A207265643B7D2E73616665207B63B5
:1001C0006F6C6F723A20677265656E3B7D3C2F7372
:1001D00074796C653E3C2F686561643E3C626F6477
:1001E000793E3C68313E53495354454D2050454E6D
:1001F000444554454B5349204741533C2F68313EB9
:100200003C703E41484D41442052414649207C20AB
:10021000323130383039363031373C2F703E3C7017
:100220003E4E696C61692053656E736F72204D514B
:100230002D323A2025643C2F703E3C703E506F7347
:1002400069736920536572766F3A2025642044658E
:1002500072616A61743C2F703E3C7020636C617304
:10026000733D272573273E5374617475733A2025B7
:10027000733C2F703E3C2F626F64793E3C2F687454
:100280006D6C3E0000000000240027002A000000E2
:100290000000250028002B000404040404040404C6
:1002A0000202020202020303030303030102040821
:1002B00010204080010204081020010204081020D0
:1002C0000000000800020100000304070000000015
:1002D00000000000090A481111241FBECFEFD8E02A
:1002E000DEBFCDBF11E0A0E0B1E0E6E6FDE202C076
:1002F00005900D92A438B107D9F725E0A4E8B1E044
:1003000001C01D92A837B207E1F711E0CBE6D1E0BA
:1003100004C02197FE010E94A114CA36D107C9F773
:100320000E94780A0C94A6160C940000CF93DF93D9
:100330002091A5042223C1F0FC0120812223A1F0F9
:10034000C5EAD4E0A1EAB4E09C012C5F3F4F89915B
:1003500041919D918427892339F4E217F307B9F776
:1003600081E0DF91CF91089580E0FBCF8F929F9243
:10037000AF92BF92FF920F931F93CF93DF93F090B2
:100380006B052BE02F1508F44CC020916D0508E596
:1003900012E0021B110927FD1395000F111F000F1A
:1003A000111F20916C05C8E8D0E0C21BD10927FDC0
:1003B000D395CC0FDD1FCC0FDD1F4E010D2E000C91
:1003C000AA08BB089801012E000C440B550B2819F4
:1003D00039094A095B09DC010E94251424EB30E04D
:1003E00040E050E00E94FB13820E931EA41EB51E37
:1003F0008C169D062CF0E801801691060CF4E401A1
:100400002297CC0FDD1F2FB7F8948F2D90E0FC01C1
:10041000EE0FFF1FE80FF91FEA5BFA4FD283C1838B
:100420002FBFDF91CF911F910F91FF90BF90AF90A1
:100430009F908F90089590E0FC01E054FD4F24912F
:10044000FC01E455FD4F3491FC01E856FD4FE49169
:10045000EE23C9F0222339F0233001F1A8F4213032
:1004600019F1223029F1F0E0EE0FFF1FE257FD4FA6
:10047000A591B4918FB7F894EC91611126C0309595
:100480003E233C938FBF08952730A9F02830C9F050
:10049000243049F7809180008F7D03C080918000D7
:1004A0008F7780938000DFCF84B58F7784BDDBCFDB
:1004B00084B58F7DFBCF8091B0008F778093B000A3
:1004C000D2CF8091B0008F7DF9CF3E2BDACFCF9382
:1004D000DF9390E0FC01E455FD4F249188569D4F39
:1004E000FC0184918823D1F090E0880F991FFC01D2
:1004F000EC57FD4FA591B491FC01E257FD4FC5911A
:10050000D49161110EC09FB7F8948C91E22FE095C1
:100510008E238C932881E223E8839FBFDF91CF91C4
:1005200008958FB7F894EC91E22BEC938FBFF6CF40
:100530003FB7F89480919D0490919E04A0919F04F0
:10054000B091A00426B5A89B05C02F3F19F00196D5
:10055000A11DB11D3FBFBA2FA92F982F8827BC011D
:10056000CD01620F711D811D911D42E0660F771F45
:10057000881F991F4A95D1F708952FB7F894609175
:10058000990470919A0480919B0490919C042FBFD0
:100590000895AF92BF92CF92DF92EF92FF920F93A6
:1005A0001F93CF93DF936C017B018B01040F151F09
:1005B000EB015E01AE18BF08C017D10759F0699171
:1005C000D601ED91FC910190F081E02DC6010995D5
:1005D000892B79F7C501DF91CF911F910F91FF9082
:1005E000EF90DF90CF90BF90AF900895FC01538DB6
:1005F000448D252F30E0842F90E0821B930B5417FD
:1006000010F0CF96089501970895FC01918D828D89
:10061000981761F0A28DAE0FBF2FB11D5D968C9122
:10062000928D9F5F9F73928F90E008958FEF9FEF61
:100630000895FC01918D828D981731F0828DE80F1D
:10064000F11D858D90E008958FEF9FEF0895FC01D7
:10065000918D228D892F90E0805C9F4F821B9109A4
:100660008F739927089589EA94E00E94270321E077
:10067000892B09F420E0822F089580E090E0892BF7
:1006800029F00E94330381110C9400000895FC01AD
:10069000A48DA80FB92FB11DA35ABF4F2C91848DE3
:1006A00090E001968F739927848FA689B7892C9340
:1006B000A089B1898C91837080648C93938D848D93
:1006C000981306C00288F389E02D80818F7D808396
:1006D0000895EF92FF920F931F93CF93DF93EC0156
:1006E00081E0888F9B8D8C8D98131AC0E889F989D9
:1006F000808185FF15C09FB7F894EE89FF896083DC
:10070000E889F98980818370806480839FBF81E05C
:1007100090E0DF91CF911F910F91FF90EF9008959E
:10072000F62E0B8D10E00F5F1F4F0F731127E02E79
:100730008C8D8E110CC00FB607FCFACFE889F989B1
:10074000808185FFF5CFCE010E944703F1CFEB8D6D
:10075000EC0FFD2FF11DE35AFF4FF0829FB7F89485
:100760000B8FEA89FB8980818062CFCFCF93DF93A3
:10077000EC01888D8823B9F0AA89BB89E889F989B9
:100780008C9185FD03C0808186FD0DC00FB607FCEE
:10079000F7CF8C9185FFF2CF808185FFEDCFCE0121
:1007A0000E944703E9CFDF91CF9108958091E8013E
:1007B0009091E9019827892798274497209106026C
:1007C00030E044E0359527954A95E1F7220F331F35
:1007D000220F331F821B930B97FF02C090E080E033
:1007E00008952091FC013091FA013093FC0120938F
:1007F000FA012091FD013091FB013093FD0120931E
:10080000FB01E8EDF1E021A5820F911D25A585A74B
:10081000662381F021A7892F9927319721E0E43DB4
:10082000F20789F710920A0210920B0280E580937A
:100830000602089511A6EFCF0F931F93CF93DF9376
:1008400070E068527E4F8A01075F1F4F213029F008
:10085000223031F48A010250110930E020E003C057
:1008600000E010E09801EB01FA01E230F10558F0E8
:10087000A991B991BA27AB27BA270A0F1B1F211DCF
:10088000311D3297F2CFFA01EE7F6E0F7F1F4E17A8
:100890005F0769F0FB01408150E070E060E0762F77
:1008A000652F542F4427040F151F261F371FA9013A
:1008B00066277727411551056105710519F0222733
:1008C0003327F1CF00951095E82FF0E0E852FE4F66
:1008D00010830183DF91CF911F910F910895E8ED6F
:1008E000F1E0108E118E80E4848B158A868B20E0D7
:1008F00044E150E06EE088E10C941C048EBD0DB420
:1009000007FEFDCF089561E0809188010E941B02DF
:1009100078940895F89460E0809188010C941B020B
:100920000F931F93CF93DF93EC018B010E948A04F6
:100930002097B9F08AE30E947E041EBCF801CE0124
:10094000019739F00DB407FEFDCF2EB51EBC2193E3
:10095000F7CF2197C00FD11F0DB407FEFDCF8EB585
:100960008883DF91CF911F910F910C9483041F9383
:10097000CF93DF93182FC62FD42F0E948A048C2F79
:100980008F71812B0E947E048D2F0E947E04DF9147
:10099000CF911F910C948304CF93C82FC076809180
:1009A00086018C1799F043E06FE180EA0E94B7045A
:1009B000C09386014C2F50E085E0559547958A9568
:1009C000E1F76FE180E8CF910C94B704CF910895DF
:1009D000CF93DF93C82FD62F0E94CC044D2F6C2FBE
:1009E00080E4DF91CF910C94B704CF93DF93C82FAD
:1009F000D72F0E94E8046D2F81E08C0FDF91CF91FB
:100A00000C94E804CF93C82F0E94CC040E948A045F
:100A10008C2F8F710E947E0480E00E947E04C7FFAD
:100A200003C080E00E947E04CEB50E9483048C2F18
:100A3000CF910895CF93DF93EC0140E86FE180E818
:100A40000E94B70440E86FE180EA0E94B7044AE0E0
:100A50006CE180EA0E94B70460E07CE082E00E94E2
:100A6000F504BE01745F86E00E94F50440E060E09A
:100A70008AE70E94B7040E948A042097B1F08AE7AF
:100A80000E947E048091D8018EBDE9EDF1E0C8524C
:100A9000DE4FEC17FD0731F081910DB407FEFDCF5D
:100AA0008EBDF7CF0DB407FEFDCF0E94830448E052
:100AB0006FE180E80E94B704D0E0C0E08CE10E94C2
:100AC00002058A7029F42196C83E83E0D807B1F761
:100AD0008CE10E94020581FD03C0C83ED34039F479
:100AE00048E06FE180EADF91CF910C94B704DF9189
:100AF000CF9108950F931F93CF93DF938C01889626
:100B0000C8EDD1E0988B898B0E946F041AAA1BAAAA
:100B1000A801445E5F4F22E06AE182E30E941C0468
:100B2000C801C696DF91CF911F910F910C941A05C1
:100B3000CF93DF93EB01682F84ED0E94E804BE01A0
:100B400086ED0E94F5048AEE0E94020580FDFBCF2F
:100B5000DF91CF910895CF92DF92EF92FF920F93A2
:100B60001F938634910568F12091FB01233449F5E8
:100B7000C0900602D0900702E0900802F0900902AF
:100B800000919A0110919B0120919C0130919D014F
:100B9000C016D106E206F306A1F4E2EFF2E08852B5
:100BA0009E4F9F012E5F3F4F41815081553319F475
:100BB0005281651771F0F901E40FF11DE817F9078B
:100BC00080F380E01F910F91FF90EF90DF90CF9026
:100BD000089581E0F7CFE0918401F09185019F01B4
:100BE0002F5F3F4F309385012093840180830895C8
:100BF000FF920F931F93CF93DF93162FF42E052FA1
:100C00000E94EB05812F0E94EB05CF2DD02F1150B4
:100C100020F089910E94EB05FACFDF91CF911F91CF
:100C20000F91FF900895FC0101900020E9F73197A2
:100C3000AF01481B590BBC0189EA94E00C94C9022E
:100C40008F929F92AF92BF920F931F93CF93DF9398
:100C5000CDB7DEB7A1970FB6F894DEBF0FBECDBFFC
:100C600019A2423008F44AE08E010F5D1F4F842E16
:100C7000912CB12CA12CA50194010E946414E62FA3
:100C8000B901CA01EA30F4F4E05DD801EE938D01B8
:100C9000232B242B252B79F790E080E0109719F077
:100CA000CD010E941306A1960FB6F894DEBF0FBEC9
:100CB000CDBFDF91CF911F910F91BF90AF909F90CB
:100CC0008F900895E95CE1CFCF92DF92EF92FF928F
:100CD000CF93DF936B017C016DE289EA94E00E947F
:100CE0006903EC0166277727CB016C197D098E0912
:100CF0009F094AE00E9420068C0F9D1FDF91CF9133
:100D0000FF90EF90DF90CF9008950F931F93CF93B4
:100D1000DF938C01EB0180916E0590916F05009738
:100D200039F0209170053091710526173707B8F416
:100D3000BE016F5F7F4F0E94CC150097E1F090934A
:100D40006F0580936E05D0937105C0937005209157
:100D5000720530917305232B11F4FC011082D0939E
:100D60007305C0937205B80180916E0590916F056F
:100D70000E949F1614C080916E0590916F05009798
:100D800011F00E94431510926F0510926E0510929B
:100D900073051092720510927105109270058EE61F
:100DA00095E0DF91CF911F910F910895DC0196E0BE
:100DB000FB0101900D929A95E1F70895CF93DF938F
:100DC000EB0144E050E0BC0184EF91E00E94891601
:100DD000892B49F46EEE71E0CE010E94D60681E0C7
:100DE000DF91CF91089580E0FBCFBC0188ED91E0C9
:100DF0000E94D6066BEA71E08EED91E00C94D60667
:100E0000DC0194E0FB0101900D929A95E1F70895C1
:100E10000F931F93CF938C0186E391E00E94F50618
:100E2000E8EDF1E088E08487C6E0C58748E050E05F
:100E30006CE670E086EE91E00E945111E8EFF1E07F
:100E4000DF011D92CA95E9F76BEA71E08EEE91E041
:100E50000E94D606B8018EEF91E00E94000765EA75
:100E600074E084EF91E00E9400078AE290E0CF9165
:100E70001F910F910C941A058EED91E00E94F506DA
:100E800062EF71E086EF91E00E94000765EA74E08E
:100E900082EF91E00E9400070C946F04262F2061DE
:100EA00020930702643021F0009711F481E090E074
:100EB00061E00E94F1031092E80188E28093E90169
:100EC0000E943C0784E0809308021092090222E00D
:100ED0004CE150E06AE182E30E941C0486E390E06A
:100EE0000C941A05CF93DF93EB010E94F506BE0127
:100EF00086EF91E00E94000765EA74E082EF91E0DE
:100F0000DF91CF910C940007EF92FF920F931F9304
:100F1000CF93DF938C01E8EDF1E086E191E0DF0112
:100F20009C011D9221503040E1F78091AA01C6E357
:100F3000D1E0833011F4C5E9D1E0CE010E949601E1
:100F4000BE01882309F4ACC085EB91E00E947207D2
:100F50008881807F803E91F088819981AA81BB81C0
:100F60008F3F9F4FAF4FBF4F49F044E050E0BE016D
:100F700081EB91E00E948916892B31F466E371E0E0
:100F800088ED91E00E94D60688E08093E4011092FB
:100F9000E50149E050E064E770E086EE91E00E94F0
:100FA00051111092E80181E18093EF011092FC0150
:100FB00083E48093FD011092FA0184E48093FB01A5
:100FC0001092FE01109200021092010266E371E09D
:100FD00088ED91E00E94D60681E080930202809322
:100FE000030286E08093040280919A0190919B0114
:100FF000A0919C01B0919D018093060290930702FD
:10100000A0930802B0930902C091AA01C33031F441
:1010100065EA74E08EE092E00E9400076BEA71E0FE
:101020008EE192E00E94D6068EEE92E090938501CA
:1010300080938401E8E6F0E084910E94EB05E9E604
:10104000F0E084910E94EB05EAE6F0E084910E94D2
:10105000EB05EBE6F0E084910E94EB0585E30E944E
:10106000EB0581E00E94EB0583E0C11101C081E046
:101070000E94EB058DE30E94EB0587E00E94EB05E3
:1010800081E00E94EB058BEAE82E81E0F82EC7E0B4
:10109000C15049F0D7018D917D010E94EB05F8CF39
:1010A0008BEB91E053CF80910001882371F060E0D9
:1010B00071E0FB0101900020E9F7BF016150714030
:1010C00040E051E08CE00E94F8050115110559F04F
:1010D000A80164E082E30E94F80545E951E064E07C
:1010E00086E30E94F80587E30E94EB0583E00E94F7
:1010F000EB0581E00E94EB0583E00E94EB0586E0B2
:101100000E94EB058FEF0E94EB05C0918401D09106
:101110008501C250D240CE014C969093E801809355
:10112000E9010E946F04CE0108969093FE0180931E
:10113000FF01AE01405F5F4F21E06AE188E20E945B
:101140001C04CE018A96DF91CF911F910F91FF90E1
:10115000EF900C941A051F920F920FB60F92112464
:101160002F933F938F939F93AF93BF938091990455
:1011700090919A04A0919B04B0919C0430919804A2
:1011800023E0230F2D3758F50196A11DB11D2093A3
:1011900098048093990490939A04A0939B04B0932D
:1011A0009C0480919D0490919E04A0919F04B09115
:1011B000A0040196A11DB11D80939D0490939E04EF
:1011C000A0939F04B093A004BF91AF919F918F9182
:1011D0003F912F910F900FBE0F901F90189526E80A
:1011E000230F0296A11DB11DD2CF1F920F920FB6F1
:1011F0000F9211242F933F934F935F936F937F939D
:101200008F939F93AF93BF93EF93FF9389EA94E0FB
:101210000E944703FF91EF91BF91AF919F918F91F2
:101220007F916F915F914F913F912F910F900FBEE2
:101230000F901F9018951F920F920FB60F921124C6
:101240002F938F939F93EF93FF93E091B904F091C5
:10125000BA048081E091BF04F091C00482FD1BC0FC
:1012600090818091C2048F5F8F732091C304821795
:1012700041F0E091C204F0E0E755FB4F958F809379
:10128000C204FF91EF919F918F912F910F900FBE0C
:101290000F901F9018958081F4CF1F920F920FB678
:1012A0000F9211242F933F934F935F936F937F93EC
:1012B0008F939F93AF93BF93CF93DF93EF93FF935E
:1012C00080918701C0916A05D0E087FF24C0109209
:1012D000850010928400809187018F5F8093870141
:1012E00080918701082E000C990B8C179D0724F420
:1012F000809187018C30C4F18091840090918500A9
:10130000049680349C4908F47AC0809184009091BE
:101310008500049676C080918701082E000C990BF9
:101320008C179D07C4F6E09187018E2FEE0F990B65
:10133000FC01EE0FFF1FE80FF91FEA5BFA4F8081F7
:1013400086FFC9CFE09187018E2FEE0F990BFC012C
:10135000EE0FFF1FE80FF91FEA5BFA4F808160E094
:101360008F730E941B02B7CF2091840030918500BB
:10137000E09187018E2FEE0F990BFC01EE0FFF1FFE
:10138000E80FF91FEA5BFA4F81819281820F931F68
:101390009093890080938800E09187018E2FEE0F53
:1013A000990BFC01EE0FFF1FE80FF91FEA5BFA4FE4
:1013B000808186FF11C0E09187018E2FEE0F990B7F
:1013C000FC01EE0FFF1FE80FF91FEA5BFA4F808167
:1013D00061E08F730E941B02FF91EF91DF91CF912B
:1013E000BF91AF919F918F917F916F915F914F913D
:1013F0003F912F910F900FBE0F901F90189580E492
:101400009CE990938900809388008FEF80938701F7
:10141000E3CF1092AC041092AB0488EE93E0A0E00E
:10142000B0E08093AD049093AE04A093AF04B0936A
:10143000B00480E491E09093AA048093A90485EC21
:1014400090E09093B6048093B50484EC90E0909380
:10145000B8048093B70480EC90E09093BA04809332
:10146000B90481EC90E09093BC048093BB0482ECBF
:1014700090E09093BE048093BD0486EC90E090933E
:10148000C0048093BF041092C2041092C30410924F
:10149000C4041092C50410926F0510926E0510924C
:1014A000710510927005109273051092720570E02C
:1014B00060E08FE591E00E94850680916A058C309E
:1014C00098F491E0980F90936A0580936B0590E0F3
:1014D000FC01EE0FFF1FE80FF91FEA5BFA4F88EBE4
:1014E0009BE09283818308958FEF80936B0508952D
:1014F000CF93DF93CDB7DEB728970FB6F894DEBF52
:101500000FBECDBF789484B5826084BD84B5816000
:1015100084BD85B5826085BD85B5816085BD8091BE
:101520006E00816080936E00109281008091810036
:10153000826080938100809181008160809381002E
:10154000809180008160809380008091B1008460F0
:101550008093B1008091B00081608093B000809151
:101560007A00846080937A0080917A008260809310
:101570007A0080917A00816080937A0080917A006D
:10158000806880937A001092C100E091B904F091D4
:10159000BA0482E08083E091B504F091B604108231
:1015A000E091B704F091B8048FEC80831092C104ED
:1015B000E091BD04F091BE0486E08083E091BB041D
:1015C000F091BC04808180618083E091BB04F09144
:1015D000BC04808188608083E091BB04F091BC04EE
:1015E000808180688083E091BB04F091BC0480819D
:1015F0008F7D808380916B058C3008F051C061E055
:1016000080E10E94670280916B05282F30E0F9018C
:10161000EE0FFF1FE20FF31FEA5BFA4F9081907C01
:101620009061908310926C0510926D052CE0622FF2
:101630000E949514829FB001112430E020E0AB019C
:10164000420F531FFA01EE0FFF1FE40FF51FEA5B75
:10165000FA4F908196FD16C02F5F3F4F2C30310519
:1016600071F781110FC01092800082E08093810099
:101670001092850010928400B19A80916F00826070
:1016800080936F00E0916B058E2F90E0FC01EE0FD0
:10169000FF1FE80FF91FEA5BFA4F808180648083A7
:1016A0001092D50187E390E0C12CD12C7601C39430
:1016B0000097C1F0FC0123E0F595E7952A95E1F745
:1016C000E757FE4F282F2770B701A60104C0440F2B
:1016D000551F661F771F2A95D2F72081242B208360
:1016E0000197E6CF68E271E08BEA91E00E94D606AE
:1016F0008CEB92E090939101809390010CB406FCE6
:1017000025C061E08AE00E94670261E08AE00E94F1
:101710001B0261E08BE00E94670261E08DE00E94A5
:10172000670260E08CE00E94670261E08BE00E944B
:101730001B0260E08BE00E941B0260E08DE00E94D3
:101740001B0280E58CBD8DB581608DBD8AE08093E4
:10175000880161E00E9467020E9483044FEF60E00D
:101760008FEF0E94B7040E9498026B017C0182E017
:10177000882E912CA12CB12C0E9498026C197D0905
:101780008E099F09683E734081059105A8F328EEF4
:10179000C20E23E0D21EE11CF11C8A9489288A28FB
:1017A0008B2829F0812C912C54018394E5CF0E9441
:1017B0008A048DE10E947E0480E00E947E041EB5B2
:1017C0000E948304112399F370E060E088E00E9496
:1017D000F50470E060E08CE00E94F5046FEF7BE0C0
:1017E0008AE00E94F50460E07CE084E00E94F50459
:1017F0006FEF71E186E00E94F50466E774E084E132
:101800000E94980561EB88E30E94E8046FE370E3AF
:1018100088E20E94F50469EF77EF80E30E94F50407
:1018200061E080EC0E94E80442E362EC80E80E9400
:10183000B70462E17CE086EC0E94F50462E184EC8E
:101840000E94E8046CED75E08AEC0E94F50460915A
:10185000AB0184EE0E94E8046091AC0185EE0E9429
:10186000E8046091AD0182EE0E94E8046091AE014F
:1018700083EE0E94E8046091AF0180EE0E94E804CC
:101880006091B00181EE0E94E80460E071E080E1C7
:101890000E9498058FE10E94CC0440EC6BE180E847
:1018A0000E94B70444E06FE180E80E94B70482E739
:1018B0000E9402051092D50164E271E085EA94E08D
:1018C0000E9400071092D3011092D20181E0809310
:1018D000D40160E271E08EEC91E00E940007E5EA3D
:1018E000F4E021EA34E041EB51E09191D9018D918E
:1018F0009D018095892BDA018D93AD01B4E0E93A21
:10190000FB0799F761E081E10E94670261E082E1F3
:101910000E946702BEE02B2EB2E03B2E13E0A12E08
:10192000E4E0BE2EFCE29F2EA0E68A2E21E4209366
:101930007C0080917A00806480937A0080917A00A4
:1019400086FDFCCFE0907800F090790080919604BD
:10195000909197048E159F0509F44BC08EE491E099
:101960000E941306B7010F2C000C880B990B97FFF0
:1019700080C10E9464068DE591E00E941306F092FA
:101980009704E092960485EFE81681E0F8060CF4DF
:1019900074C188E790E00E94B60188E790E09093D8
:1019A00095048093940461E081E10E941B0260E051
:1019B00082E10E941B0266E070E080E691E00E94F6
:1019C00085068CE691E00E94130660919404709164
:1019D0009504072E000C880B990B97FF63C10E949A
:1019E00064068BE791E00E9413068DE591E00E946A
:1019F000130680919401882379F06091920170918F
:101A000093016115710509F051C16FEF7BE08CE026
:101A10000E94F5041092940189E30E94020510E0EF
:101A200000E08823C9F1609192017091930180E0F8
:101A30000E94F504BE016F5F7F4F86E090E00E9438
:101A4000900489819A8190939301809392018D8172
:101A50009E818C010078112787FF12C08B819C81A9
:101A60000497009190011091910101501109801784
:101A7000910708F48C0168ED71E0C8010E949004A0
:101A8000F801E852FE4F108281E08093940140E417
:101A90006EE180E80E94B7048091D501882369F047
:101AA0008091AA01823009F40AC108F002C188239A
:101AB00009F48FC1813009F4ADC10115110509F098
:101AC00038C28091D401857029F18091D201909122
:101AD000D301892BF9F461E184ED0E94E80461E00F
:101AE00082ED0E94E8048AEE0E94020580FDFBCF91
:101AF00060E082ED0E94E80489ED0E94020582FF09
:101B000009C08EEC91E00E9408078091D4018860A2
:101B10008093D4018091D2019091D301019690934A
:101B2000D3018093D2018091CD01813009F06AC048
:101B30008091D40181FF66C082E08093CD018091C5
:101B40002F018F5F80932F01182F1F7183EC91E07D
:101B50000E94960163EC71E0882309F4E7C185EBEC
:101B600091E00E94720708E00093E4011092E50101
:101B700049E050E064E770E086EE91E00E94511188
:101B80009092E90196E09093EF010E946F04109209
:101B9000FC011092FD018BE08093FA011093FB0190
:101BA000EEEFF1E0DF011D920A95E9F780912E0139
:101BB000809300028D5F80932E018092060282E066
:101BC00080930702A09208021092090210920A0262
:101BD00010920B0210920C0210920D0280930E02D2
:101BE000B0920F028093100286E28093110222E0ED
:101BF00040E250E06AE182E30E941C048AE390E044
:101C00000E941A0589EC91E00E949601882379F0E0
:101C10008091C80181110BC08091C701811107C05B
:101C200089EC91E00E94080781E08093C70183EC72
:101C300091E00E949601882379F08091C201811180
:101C40000BC08091C101811107C083EC91E00E941B
:101C5000080781E08093C101A0E0B0E0AB2B09F45C
:101C600065CE0E943303882309F45ACE0E940000F7
:101C700057CE4AE00E9420067ECE90E080E00E948F
:101C8000B601109295041092940460E081E10E94E4
:101C90001B0261E082E10E941B0264E070E087E6C3
:101CA00091E08DCE4AE00E9420069BCE61507109E2
:101CB000AECE833009F459C0843009F0FECE65E021
:101CC000C8010E94AB05882309F4CDC08091990119
:101CD000811108C088E30E940205682F6E7F88E3A7
:101CE0000E94E80462E172E085EA94E00E94000745
:101CF000E2EFF2E0C80188529E4F98878F836F0110
:101D000092E0C90ED11C71808081863009F4FDC03B
:101D100008F0C0C0813009F4EEC0833009F4F1C08E
:101D2000F601E70DF11D8F819885E817F90738F363
:101D30000E94BD026093A2017093A3018093A4014D
:101D40009093A5018091CE01882361F01092D30178
:101D50001092D20181E08093D4016EEC71E0CB014E
:101D60000E940007A092AA01A8CE4090A601509020
:101D7000A7016090A8017090A9019FEF491659062C
:101D80006906790609F499CE0E94BD022091A2014C
:101D90003091A3014091A4015091A501621B730BE6
:101DA000840B950B641575058605970508F485CE9B
:101DB00085EA94E00E948407B092AA010E94BD02C5
:101DC00060939E0170939F018093A0019093A10165
:101DD00074CE0E94BD0260939A0170939B01809320
:101DE0009C0190939D01E5EAF4E0DF012B2D1D920B
:101DF0002A95E9F790E080E00E94840788E30E943A
:101E00000205682F616088E30E94E80481E0809306
:101E1000AA01D4CF62E0C8010E94AB05882319F162
:101E200062E172E0CE0101960E940007E2EFF2E06B
:101E3000C80188529E4FBF016E5F7F4F2181308164
:101E4000363351F485E991E00E940007CE010196F6
:101E50000E94840782E0DBCFFB01E20FF11DE8174F
:101E6000F90748F3F3CF0E94BD0220919E01309103
:101E70009F014091A0015091A101621B730B840B43
:101E8000950B613177428105910508F416CE1092C9
:101E9000AA0113CE8A3331F08F3F09F449CF83333F
:101EA00009F03ECF1092A6011092A7011092A8014E
:101EB0001092A901F601C601049620E030E0A901C4
:101EC0006191542F432F322F2227260F311D411DA0
:101ED000511D8E179F07A1F72F3FAFEF3A074A0713
:101EE0005A07B9F42093A6013093A7014093A801A3
:101EF0005093A90115CFB60181EA94E00E94000732
:101F00000FCFB6018EEC91E0F9CFB60189EC91E0EC
:101F1000F5CFA8EEB3E00E941A146093A601709367
:101F2000A7018093A8019093A901FACE8BEB91E0D1
:101F300018CE0932110508F48FCE8091E401883063
:101F400009F08ACE8091E501863009F059C144E05C
:101F500050E065EA74E08EEF91E00E948916892BCB
:101F600009F07ACE8091ED01813029F58EED91E076
:101F70000E94F5061092EC0182E08093ED016EEE76
:101F800071E088EF91E00E94D6066BEA71E08EEE78
:101F900091E00E94D60664EF71E08EEF91E00E941E
:101FA000000765EA74E084EF91E00E9400078AE28E
:101FB00090E00E941A058091D40183FF0DC010911A
:101FC000ED01123049F46BEB71E08EEC91E00E9470
:101FD000DE0681111093D4018091C801811111C0D6
:101FE0008091C701882369F065EB71E089EC91E08D
:101FF0000E94DE06882329F081E08093C8011092B8
:10200000C7018091C201811127CE8091C10188232F
:1020100009F422CE65EB71E083EC91E00E94DE06CC
:10202000882309F419CE81E08093C2011092C10186
:1020300013CE0633110508F40FCE863009F00CCE0E
:102040008091FC018B3009F04DC044E050E063EC1E
:1020500071E082EF91E00E948916892B09F0FCCD96
:102060001091070212FF04C085E08093CD01F4CDEA
:102070000E94D6032091CD012230F9F4212F227144
:10208000223179F460E090E080E00E944E0788E120
:1020900080930702A092CD0190E080E00E947A0533
:1020A000DBCD21E02093CD01019614FF02C090E02A
:1020B00080E064E00E944E07CFCD253009F4CCCDFE
:1020C00010FF0BC0233009F4C7CD69E001960E94D0
:1020D0004E07B6E0B093CD01BFCD60E0009709F4A4
:1020E000BBCDE8CF8111B8CD8091FD01803509F0DD
:1020F000B3CDD0900702D1FE36C01092E801909285
:10210000E9010E943C0782E18093070260E081E0E0
:1021100090E00E94F1031092FE011092FF01809165
:102120002E0180930002109201028D5F80932E0198
:1021300082E080930E02B0920F0285E0809310023D
:1021400010921102809206028093080228E72093E1
:10215000090222E040E250E06AE182E30E941C04AE
:102160008AE390E092C0D4FE77CD0E94D60390938C
:10217000D7018093D601892BE9F18091060290E086
:1021800024E0959587952A95E1F7880F991F880F88
:10219000991F82960817190708F45ECD80916E0585
:1021A00090916F059F938F939F938F938091950448
:1021B0008F93809194048F93FF92EF928DE790E03C
:1021C0009F938F933F922F920E945A1160E08091CB
:1021D000D6019091D7010E944E07B9E1B093070252
:1021E00086E092E00E947A050FB6F894DEBF0FBE3B
:1021F000CDBF32CDD0FE30CD60E090E080E05ACF50
:102200000932110509F428CD811126CD8091E6010E
:10221000853409F021CD44E050E065EA74E086EFB2
:1022200091E00E948916892BA9F044E050E061EB0F
:1022300071E086EF91E00E948916892B59F044E005
:1022400050E066E371E086EF91E00E948916892BE9
:1022500009F002CD8091EF01813009F0EACE809142
:10226000FA01883009F0F8CC0E943C071092FA017C
:102270008091FC01883F28F09091FD019F5F909331
:10228000FD01885F8093FC01C8010E941A05E4CC1F
:1022900080916E0590916F05009711F00C94431595
:1022A0000895FB01DC0102C005900D9241505040A1
:1022B000D8F70895AEE0B0E0E0E6F1E10C943B140D
:1022C0000D891E898EE08C831A8309838FEF9FE727
:1022D0009E838D83AE01475E5F4F6F89788DCE01FF
:1022E00001960E947D112F813885020F131FF8017E
:1022F00010822E96E4E00C945714ABE0B0E0E3E8D3
:10230000F1E10C942D147C013B018A01FC01178240
:102310001682838181FFC8C1CE0101965C01F7015D
:102320009381F30193FD859193FF81913F01882370
:1023300009F453C1853239F493FD859193FF81915E
:102340003F01853229F4B70190E00E946D13E7CF79
:10235000912C212C312CFFE1F31538F08B3211F147
:1023600090F4803209F1833229F137FC3CC020ED32
:10237000280F2A3050F536FE20C08AE0989E200DA6
:102380001124922E06C08D3291F0803371F768943B
:1023900030F8F30193FD859193FF81913F01811105
:1023A000DACF21C0689431F8689432F8F2CF68949B
:1023B00033F8EFCF689434F8ECCFEAE02E9E200D8E
:1023C0001124222E689435F8E4CF8E3229F436FC9D
:1023D00004C1689436F8DDCF8C3619F4689437F868
:1023E000D8CF8836B1F2982F9F7D95549330E0F086
:1023F0008336A1F18337C1F1833509F063C0280129
:10240000F2E04F0E511CF801C080D180692D70E0C0
:1024100036FC02C06FEF7FEFC6010E9457134C01DC
:10242000689437F882010AC00C5F1F4FFFE3F983FD
:1024300088248394912C6501E89437F833FE2DC0ED
:10244000522C8114910471F5552009F468CFB7011D
:1024500080E290E00E946D135A94F6CFF8018081DB
:1024600089830E5F1F4FE4CF2801F2E04F0E511C0D
:10247000F801C080D180692D70E036FC02C06FEF9A
:102480007FEFC6010E9462134C018201D5CFB701D4
:1024900080E290E00E946D132A942814190409F038
:1024A000B0F7CECFF60137FC859137FE81916F01F1
:1024B000B70190E00E946D1351105A94F1E08F1A09
:1024C0009108BFCF843619F0893609F077C0F8013A
:1024D00037FE6BC060817181828193810C5F1F4FD9
:1024E000F32DFF763F2E97FF09C09095809570954C
:1024F00061957F4F8F4F9F4F689437F82AE030E007
:10250000A5010E949D13C82ECA188C2C432C36FEA0
:102510000CC0E89440F8C91440F434FE05C032FC05
:1025200003C0F32DFE7E4F2E892C44FE95C0FE0184
:10253000EC0DF11D8081803309F087C0242D297EA8
:10254000422E842D8870582E43FC95C040FE8FC0CB
:102550009C2C821418F42C0C922C981844FE91C0D8
:10256000B70180E390E00E946D1342FE09C088E746
:1025700090E041FE02C088E590E0B7010E946D1333
:10258000C91408F48AC0CA94D12C9FEFC91AD90A79
:10259000CA0CDB1CF60182916F01B70190E00E942A
:1025A0006D13AC14BD04B1F74FCF60817181072E5C
:1025B000000C880B990B0E5F1F4F92CFD32CE89421
:1025C000D4F82AE030E0853739F1232D297FD22E47
:1025D0008F3601F148F48835A9F0F701868197819B
:1025E0002B96E2E10C944914803749F08837A9F71B
:1025F000D4FE02C06894D2F820E130E00DC06894A7
:10260000D4F8F6CF34FE03C0822F8660D82E20E1A6
:1026100032E002C028E030E0F801D7FE0FC0608150
:102620007181828193810C5F1F4FA5010E949D13D0
:10263000C82ECA183D2CE89437F867CF60817181A5
:1026400090E080E00E5F1F4FF0CF42FC02C0839409
:1026500078CF8394839475CF842D867809F471CFD5
:10266000F6CFB70180E290E00E946D13839482144C
:10267000C0F3512C73CF522C5818821408F46ECF2B
:10268000F8CF842D867809F47BCF8BE241FE80E27F
:1026900047FC8DE2B70190E071CFB70180E390E095
:1026A0000E946D139A946CCF8FEF9FEF99CFFC012E
:1026B0000590615070400110D8F7809590958E0F6D
:1026C0009F1F0895FC016150704001900110D8F7E0
:1026D000809590958E0F9F1F08950F931F93CF9312
:1026E000DF93182F092FEB018B8181FD09C01FEFAC
:1026F0000FEF812F902FDF91CF911F910F910895B0
:1027000082FF14C02E813F818C819D81281739075B
:102710003CF4E881F981CF01019699838883108385
:102720008E819F8101969F838E83E3CFE885F98513
:10273000812F0995892BA1F3DACFFA01AA27283036
:1027400051F1203181F1E8946F936E7F6E5F7F4F7E
:102750008F4F9F4FAF4FB1E03ED0B4E03CD0670FFA
:10276000781F891F9A1FA11D680F791F8A1F911D4D
:10277000A11D6A0F711D811D911DA11D20D009F49D
:1027800068943F912AE0269F11243019305D3193DF
:10279000DEF6CF010895462F4770405D4193B3E0C8
:1027A0000FD0C9F7F6CF462F4F70405D4A3318F06F
:1027B000495D31FD4052419302D0A9F7EACFB4E020
:1027C000A6959795879577956795BA95C9F70097D8
:1027D0006105710508959B01AC010A2E0694579579
:1027E000479537952795BA95C9F7620F731F841FD0
:1027F000951FA01D0895052E97FB1EF400940E94BE
:10280000121457FD07D00E94641407FC03D04EF445
:102810000C94121450954095309521953F4F4F4F91
:102820005F4F089590958095709561957F4F8F4F7C
:102830009F4F08950E948614A59F900DB49F900D00
:10284000A49F800D911D11240895B7FF0C941A14B4
:102850000E941A14821B930B08952F923F924F925D
:102860005F926F927F928F929F92AF92BF92CF9220
:10287000DF92EF92FF920F931F93CF93DF93CDB729
:10288000DEB7CA1BDB0B0FB6F894DEBF0FBECDBFA1
:1028900009942A88398848885F846E847D848C8472
:1028A0009B84AA84B984C884DF80EE80FD800C817B
:1028B0001B81AA81B981CE0FD11D0FB6F894DEBF5E
:1028C0000FBECDBFED010895A1E21A2EAA1BBB1BBE
:1028D000FD010DC0AA1FBB1FEE1FFF1FA217B307EC
:1028E000E407F50720F0A21BB30BE40BF50B661F02
:1028F000771F881F991F1A9469F7609570958095C6
:1029000090959B01AC01BD01CF010895A29FB0013C
:10291000B39FC001A39F700D811D1124911DB29F13
:10292000700D811D1124911D0895991B79E004C03B
:10293000991F961708F0961B881F7A95C9F78095FE
:102940000895EE0FFF1F0590F491E02D09940F9369
:102950001F93CF93DF938230910510F482E090E0D3
:10296000E0917605F091770530E020E0B0E0A0E05E
:10297000309799F42115310509F44AC0281B390B09
:1029800024303105D8F58A819B816115710589F163
:10299000FB0193838283FE0111C04081518102813A
:1029A000138148175907E0F04817590799F4109711
:1029B00061F012960C93129713961C933296CF01E6
:1029C000DF91CF911F910F91089500937605109399
:1029D0007705F4CF2115310551F04217530738F030
:1029E000A901DB019A01BD01DF01F801C1CFEF01AF
:1029F000F9CF9093770580937605CDCFFE01E20F56
:102A0000F31F819391932250310939832883D7CFC3
:102A10002091740530917505232B41F420913201EA
:102A20003091330130937505209374052091300166
:102A3000309131012115310541F42DB73EB7409158
:102A4000340150913501241B350BE0917405F09150
:102A50007505E217F307A0F42E1B3F0B2817390763
:102A600078F0AC014E5F5F4F2417350748F04E0FEA
:102A70005F1F5093750540937405819391939FCF89
:102A8000F0E0E0E09CCFCF93DF930097E9F0FC010A
:102A9000329713821282A0917605B0917705ED01ED
:102AA00030E020E01097A1F420813181820F931F44
:102AB00020917405309175052817390709F061C018
:102AC000F0937505E0937405DF91CF910895EA01C5
:102AD000CE17DF07E8F54A815B819E01411551055C
:102AE000B1F7E901FB83EA8349915991C40FD51FDE
:102AF000EC17FD0761F4808191810296840F951F88
:102B0000E90199838883828193819B838A83F0E0A2
:102B1000E0E012968D919C9113970097B9F52D9155
:102B20003C911197CD010296820F931F209174055D
:102B3000309175052817390739F6309751F51092FD
:102B4000770510927605B0937505A0937405BCCFF8
:102B5000D383C28340815181840F951FC817D90741
:102B600061F44E5F5F4F88819981480F591F5183EF
:102B700040838A819B81938382832115310509F0EB
:102B8000B0CFF0937705E09376059ECFFD01DC0191
:102B9000C0CF13821282D7CFB0E0A0E0E2EDF5E122
:102BA0000C942F148C01009751F4CB010E94A714B0
:102BB0008C01C801CDB7DEB7E0E10C944B14FC01E9
:102BC000E60FF71F9C0122503109E217F30708F4C2
:102BD0009DC0D901CD91DC911197C617D70798F008
:102BE000C530D10530F3CE0104978617970708F357
:102BF000C61BD70B2297C193D1936D937C93CF01C2
:102C00000E944315D6CF5B01AC1ABD0A4C018C0E55
:102C10009D1EA0917605B0917705512C412CF12C89
:102C2000E12C109731F58091740590917505881508
:102C3000990509F05CC04616570608F058C0809107
:102C4000300190913101009741F48DB79EB74091CA
:102C5000340150913501841B950BE817F90708F0F2
:102C600055C0F0937505E0937405F9017183608395
:102C7000A0CF8D919C91119712966C9012971396FC
:102C80007C901397A815B90559F56C0142E0C40E64
:102C9000D11CCA14DB0420F1AC014A195B09DA012A
:102CA0001296159780F06282738251834083D90116
:102CB0006D937C93E114F10471F0D7011396FC93AA
:102CC000EE93129776CF22968C0F9D1FF901918378
:102CD0008083F301EFCFF0937705E093760569CF1A
:102CE0004816590608F42C017D01D3019ACFCB0177
:102CF0000E94A7147C01009749F0AE01B8010E9420
:102D00009616C8010E944315870153CF10E000E0DA
:102D100050CFFB01DC0104C08D910190801921F49A
:102D200041505040C8F7881B990B0895FB01DC0106
:102D300002C001900D9241505040D8F70895FB0118
:102D4000DC0101900D920020E1F7089511E0CBE63F
:102D5000D1E004C0FE010E94A1142196CC36D10717
:062D6000C9F7F894FFCF53
:102D660041726475696E6F2D454E4332386A36304E
:102D76002D303000000000000000000000000000C0
:102D8600A9FE24D7A9FE24D87469692D30310A0119
:102D9600000078058000FFFFFFFFFFFF0000000036
:102DA6006903C902F602B6032703050319034E6930
:102DB6006C61692073656E736F723A20000D0A00AC
:102DC60064616E676572007361666500506F736952
:102DD600736920736572766F3A20002064657261AC
:042DE6006A617400AA
:00000001FF
